:02000004002ECC
:080000001703DA276700A316BD
:020000042808CA
:100000009711F9FF938101B217D1F9FF130181DF35
:10001000EF7000631705F9FF13054539230005004C
:10002000EF70007419E1EF70E075970200009382A1
:10003000621D7390723097020000938222157390B4
:10004000523073102034EF7020642A84EF60D31292
:10005000EF60C3781705F9FF1305C5FA9705F9FF97
:100060009385C5FA17060400130646C2EF60930095
:100070001705F9FF130585F99705F9FF9385852A7B
:1000800017060400130606C1EF60C37E1705F9FFCB
:10009000130545299705F9FF9385C5301706040018
:1000A0001306C6F0EF60037D1705F9FF1305852FD2
:1000B0009705F9FF9385052F17060400130606F729
:1000C000EF60437B170518001305C5F3972518004B
:1000D000938545B41736040013064685EF6083798F
:1000E00019CC1705F8FF1305E5219775F8FF9385DF
:1000F000E5E0179603001306E6F9EF60A37717050E
:10010000F9FF1305252B9775F9FF9385E5F4EF604B
:10011000237C1775F9FF130525F49775F9FF93856F
:10012000A502EF60E37A1775F9FF1305E5019775EE
:10013000F9FF93856501EF60A37919C81775F8FF7A
:10014000130545DC9775F8FF93850570EF604378DC
:1001500009C437D53F0008450295EF70E8EEEF601F
:10016000E37CEF70E8F6EF60A3661775F8FF130500
:10017000E56D97A5F8FF938565FD17060400130646
:10018000E6EA6F60236F8280732220349771F8FF54
:1001900023AA41D6732210349771F8FF23A641D6C3
:0A01A00001A00100010000000000B2
:0401F0006FB0C11912
:1001F400000000000000000000000000401A082871
:10020400421A0828441A082800000000461A082840
:10021400481A0828000000004A1A08284C1A08281E
:100224004E1A082800000000501A0828521A0828FC
:10023400000000000000000000000000541A08281C
:10024400541A0828541A0828541A0828541A082832
:10025400541A0828541A0828541A0828541A082822
:10026400000000000000000000000000000000008A
:10027400000000000000000000000000541A0828DC
:10028400000000000000000000000000000000006A
:10029400000000000000000000000000000000005A
:1002A400000000000000000000000000000000004A
:1002B400000000000000000000000000541A08289C
:1002C400541A0828541A0828541A0828541A0828B2
:1002D400541A08280000000000000000541A0828DE
:1002E400000000000000000000000000000000000A
:1002F40000000000000000000000000050680B280F
:1003040000000000000000000000000000000000E9
:1003140000000000000000000000000000000000D9
:1003240000000000000000000000000000000000C9
:1003340000000000000000000000000000000000B9
:1003440000000000000000000000000000000000A9
:100354000000000000000000000000000000000099
:100364000000000000000000000000000000000089
:10037400541A0828000000000000000000000000DB
:100384000000000000000000000000000000000069
:100394000000000000000000000000000000000059
:1003A4000000000000000000000000000000000049
:1003B4000000000000000000000000000000000039
:1003C4000000000000000000000000000000000029
:1003D4000000000000000000000000000000000019
:1003E4000000000000000000000000000000000009
:1003F40000000000000000000000000000000000F9
:10040400000000000000000000000000541A08284A
:10041400541A08280000000000000000000000003A
:1004240000000000000000000000000000000000C8
:1004340000000000000000000000000000000000B8
:1004440000000000000000000000000000000000A8
:100454000000000000000000000000000000000098
:100464000000000000000000000000000000000088
:100474000000000000000000000000000000000078
:100484000000000000000000000000000000000068
:100494000000000000000000000000000000000058
:1004A4000000000000000000000000000000000048
:1004B4000000000000000000000000000000000038
:1004C4000000000000000000000000000000000028
:1004D4000000000000000000000000000000000018
:1004E4000000000000000000000000000000000008
:1004F40000000000000000000000000000000000F8
:1005040000000000000000000000000000000000E7
:1005140000000000000000000000000000000000D7
:1005240000000000000000000000000000000000C7
:1005340000000000000000000000000000000000B7
:1005440000000000000000000000000000000000A7
:1005540000000000541A0828541A0828541A0828BD
:100564000000000000000000000000000000000087
:100574000000000000000000000000000000000077
:100584000000000000000000000000000000000067
:100594000000000000000000000000000000000057
:1005A4000000000000000000000000000000000047
:1005B4000000000000000000000000000000000037
:1005C4000000000000000000000000000000000027
:1005D40000000000541A0828000000000000000079
:1005E4000000000000000000000000000000000007
:1005F400541A0828541A08280000000000000000BB
:1006040000000000000000000000000000000000E6
:1006140000000000000000000000000000000000D6
:1006240000000000000000000000000000000000C6
:1006340000000000000000000000000000000000B6
:10064400000000000000000000000000541A082808
:100654000000000000000000000000000000000096
:100664000000000000000000000000000000000086
:100674000000000000000000000000000000000076
:100684000000000000000000000000000000000066
:1009C400461B0828B21B0828D01B0828D41B08285B
:1009D400861B0828CC1B0828661B0828561B0828D9
:1009E400601E0828901E0828A41E08287C1E0828BB
:1009F400861E08282E21082812210828F6200828F7
:100A0400DE200828C4200828AA20082890200828C6
:100A14004E21082898060028900600281006002871
:100A2400CE240828E2240828F62408280A250828C1
:100A34001E250828342508284A2508286025082862
:100A4400762508288C250828AE2408288E24082812
:100A540008020304050607090A0C0E1012141617DF
:100A6400191A1B1C1E1F202122232425262728296E
:100A74002A2B2C2D2E2F3031323334353637383F54
:100A84003D3E434041424448494A4B4C4D4E5054EC
:100A94006E6F55565758595A5B5C5E5F606263646B
:100AA4006566696C6A6B6D71737576778578797A2A
:100AB4007B7C7F8081828384868788898A8B8C8DE6
:100AC4008E8F9091929394999AC1C2C3C4C5C6C79C
:100AD400C8C9D2D3FFFFFFFF0000000000000000E0
:100AE40000000000000000000200000004000000FC
:100AF4000B000000160000000000000000000000D1
:100B040000000000000000000000000030000000B1
:100B1400180000000C00000058000000480000000D
:100B240024000000120000004800000090000000B3
:100B3400D900000021010000B101000042020000C0
:100B44008A020000D202000041000000820000007E
:100B5400C300000004010000860100000802000038
:100B6400490200008A02000056000000AC000000A8
:100B7400020100005801000004020000B00200005D
:100B8400060300005C030000080400007B0400006E
:100B94000A0500009A05000051000000A3000000AF
:100BA400F400000045010000E80100008A02000092
:100BB400DB0200002D030000CF0300003B04000013
:100BC400C30400004A050000490000009200000030
:100BD400DB00000025010000B7010000490200000D
:100BE40092020000DB0200006E030000CF0300004D
:100BF40049040000C30400000100000000000000DC
:100C040001000000010000000100000000000000DD
:100C140000000000010000000000000001000000CE
:100C240000000000010000000100000000000000BE
:100C340014D40048030000000001000000D500485F
:100C44000300008000011F0104D500480300008058
:100C540000011F0108D500480300008000011F01A6
:100C6400F4270028D027002804000000F7270028D4
:100C7400D427002806000000FA270028DA270028D5
:100C840006000000FD270028E027002806000000D9
:100C940000280028E627002806000000EC2700288A
:100CA400C427002806000000EF270028CA270028D0
:100CB4000600000076A708284EA7082852A708288F
:100CC40056A708285AA708285EA708284AA708286C
:100CD4000100000002000000030000000500000005
:100CE40009000000070000000600000008000000E2
:100CF4001EF5082804F60828F2F50828E6F5082861
:100D0400D4F50828C6F508286AF6082876F60828CF
:100D140080F6082886F608288EF608284EF6082855
:100D24005AF608284EF6082862F608283C736C65C3
:100D340065703E000C6808481C6808482C68084820
:100D44003C6808484C6808485C6808486C6808486F
:100D54007C6808488C6808489C680848AC6808485F
:100D6400BC680848CC680848DC680848EC6808484F
:100D7400FC6808480C69084800010000E400000011
:100D8400CB000000B5000000A100000090000000AE
:100D94008000000072000000650000005A0000009E
:100DA400000200003E02000085020000D3020000A1
:100DB4002B0300008E030000FE0300007A040000F1
:100DC40006050000A30500005306000019070000F3
:100DD400F6070000FA000000F4010000E803000038
:100DE400D0070000A00F0000401F0000803E00005C
:100DF400007D000000FA0000389309283E9309287A
:100E0400449309284C930928529309285893092894
:100E1400609309286A930928709309287A9309280A
:100E240028930928309309280624303C7895091D15
:100E34003145590042A5092878A4092812A4092893
:100E440030A4092842A4092866A4092842A509282F
:100E540038A2092800000000010000000100000081
:100E64000100000001000000010000000200000079
:100E74000200000002000000020000000200000066
:100E8400EEB50928F8B5092802B609280CB60928D0
:100E940016B6092822B60928D2B50928AEB50928FC
:100EA40016BD092820BD09282ABD09280CBD09281A
:100EB40002BD09289EBD0928A8BD0928B2BD09287C
:100EC40094BD09288ABD0928F6BD0928FEBD092854
:100ED40006BE09280EBE092816BE09281EBE09280A
:100EE40026BE092830BE0928ECBD0928E2BD092820
:100EF40066BE09286EBE092876BE09287EBE09286A
:100F040086BE09288EBE092896BE0928A0BE0928D7
:100F14005CBE092852BE0928DABE0928E4BE0928A5
:100F2400EEBE0928F8BE092802BF09280CBF09280B
:100F340016BF092822BF0928CEBE0928C2BE092827
:100F440030E0084834E0084838E008483CE0084805
:100F540040E0084844E0084848E008484CE00848B5
:100F640010E1084814E1084818E108481CE1084861
:100F740020E1084824E1084828E108482CE1084811
:100F84006C8C0948708C0948748C0948788C094821
:100F94007C8C0948808C0948848C0948888C0948D1
:100FA400F88B0948FC8B0948008C0948048C0948D3
:100FB400088C09480C8C0948108C0948148C094881
:100FC400D88B0948DC8B0948E08B0948E48B094835
:100FD400E88B0948EC8B0948F08B0948F48B0948E5
:100FE40043414C44455200003533305F37370000ED
:100FF4009CE709284EE7092834E709282CE7092843
:10100400E2E60928DAE6092870E60928C6E1092893
:1010140068E60928C6E1092860E609283AE60928AD
:101024001AE6092804E60928FCE50928F4E5092854
:10103400C2E50928A0E5092862E509285AE5092836
:10104400C6E109283EE5092836E5092806E5092808
:10105400EEE40928E6E40928DEE40928D6E40928B0
:10106400BAE40928A4E4092896E40928C6E1092871
:10107400C6E109285EE409284AE40928FCE30928B2
:10108400F4E30928E6E30928DEE30928ECE3092868
:10109400F2E2092844E209283CE2092822E209286C
:1010A4001AE2092812E209280AE2092802E20928B8
:1010B400ECE10928B6ED09287CED09287CED092826
:1010C400D6ED0928E4ED0928F2ED09287CED09287C
:1010D40014EE09282EEE09286AEE09288AEE09285A
:1010E400B4EE0928DEEE0928F8EE09287CED09287B
:1010F40054EF092872EF092802F009287CED092829
:1011040010F009281EF009282CF009283AF00928C3
:10111400E01A0A28E01A0A28321B0A28E01A0A28C8
:10112400E01A0A28E01A0A28381B0A28E01A0A28B2
:10113400E01A0A282C1B0A28E01A0A28261B0A2867
:10114400201B0A28E01A0A28E01A0A28E01A0A28AA
:10115400E01A0A28E01A0A28161B0A28E01A0A28A4
:10116400E01A0A28E01A0A28E01A0A28E01A0A28CB
:101174000C1B0A28E01A0A28E01A0A28E01A0A288E
:10118400E01A0A28E01A0A28E01A0A28E01A0A28AB
:10119400E01A0A28E01A0A28E01A0A28E01A0A289B
:1011A400021B0A28E01A0A28E01A0A28E01A0A2868
:1011B400E01A0A28E01A0A28E01A0A28E01A0A287B
:1011C400E01A0A28E01A0A28E01A0A28E01A0A286B
:1011D400F81A0A28E01A0A28E01A0A28E01A0A2843
:1011E400E01A0A28E01A0A28EE1A0A28E81A0A2835
:1011F400EE1C0A28141D0A28021D0A28F01C0A28BD
:10120400DE1C0A28F01C0A284E310A2886310A28D6
:101214008A310A2870310A2896310A288E310A2820
:1012240092310A289A310A289E310A28CC310A2898
:10123400D0310A28A2310A289E310A289E310A2870
:101244009E310A289E310A28A6310A28AC310A2880
:10125400B2310A289E310A28B6310A28BC310A283C
:10126400C2310A28C8310A28DA210000C832000035
:10127400B5430000906500006A870000589800009C
:1012840045A900005046000078690000A08C0000C9
:10129400F0D2000000FA000000FA000000FA00009A
:1012A400FF7FFD7FF67FE97FD87FC27FA77F877F9F
:1012B400627F387F097FD57E9D7E5F7E1D7ED67DD1
:1012C4008A7D397DE37C897C297CC57B5D7BEF7AD3
:1012D4007D7A057A8A7909798478FA776C77D97670
:1012E4004176A57504755F74B573077355729E7165
:1012F400E27023705F6F966ECA6DF96C246C4A6B52
:101304006D6A8C69A668BD67CF66DD65E864EF63C6
:10131400F262F161EC60E35FD75EC75DB45C9D5B34
:10132400825A645942581D57F555CA549B53695201
:101334003351FB4FBF4E814D3F4CFB4AB449694882
:101344001C47CD457A442543CE417340173FB83DF1
:10135400563CF23A8C392438BA364D35DE336E3287
:10136400FB30872F112E982C1F2BA3292628A82663
:101374002825A62323229F20191F931D0B1C821AA4
:10138400F8186D17E2155514C8123911AB0F1B0E5E
:101394008B0CFB0A6A09D9074706B6042403920199
:1013A4000000000005000000060000000700000027
:1013B40008000000090000000A0000000B00000003
:1013C4000B0000000C0000000D0000000D000000E8
:1013D4000E0000000E0000000F0000000F000000CF
:1013E4000F0000000F0000000F00000010000000BC
:1013F40008AC0A2816AC0A2824AC0A28FAAB0A2836
:10140400ECAB0A28F6AE0A28F6AE0A28F6AE0A288D
:101414007AB10A286EB10A28E2AE0A28E2AE0A2896
:10142400E2AE0A28E2AE0A28E2AE0A28E2AE0A28B0
:10143400E2AE0A28E2AE0A28E2AE0A28E2AE0A28A0
:10144400E2AE0A28E2AE0A28E2AE0A28E2AE0A2890
:10145400E2AE0A28E2AE0A28E2AE0A28E2AE0A2880
:10146400E2AE0A28E2AE0A28E2AE0A28E2AE0A2870
:10147400E2AE0A28E2AE0A28E2AE0A28E2AE0A2860
:10148400E2AE0A28E2AE0A28E2AE0A28E2AE0A2850
:10149400E2AE0A28E2AE0A28E2AE0A28E2AE0A2840
:1014A400E2AE0A28E2AE0A28E2AE0A28E2AE0A2830
:1014B400E2AE0A28E2AE0A28E2AE0A28E2AE0A2820
:1014C400E2AE0A28E2AE0A28E2AE0A28E2AE0A2810
:1014D400E2AE0A28E2AE0A28E2AE0A28E2AE0A2800
:1014E400E2AE0A28E2AE0A28E2AE0A28E2AE0A28F0
:1014F400E2AE0A28E2AE0A28E2AE0A28E2AE0A28E0
:10150400E2AE0A2816B10A28C6B00A286EB00A2824
:1015140020B00A2808B00A2800B00A28D4AE0A2845
:10152400DEAF0A28BEAF0A28E2AE0A28E2AE0A28D5
:10153400E2AE0A28E2AE0A28E2AE0A28E2AE0A289F
:10154400E2AE0A28E2AE0A28E2AE0A28E2AE0A288F
:10155400E2AE0A28E2AE0A28E2AE0A28E2AE0A287F
:10156400E2AE0A28E2AE0A28E2AE0A28E2AE0A286F
:10157400E2AE0A28E2AE0A28E2AE0A28E2AE0A285F
:10158400E2AE0A28B4AF0A28AAAF0A28A2AF0A28F2
:101594009AAF0A2892AF0A288AAF0A2882AF0A288B
:1015A4007AAF0A2872AF0A28E2AE0A28E2AE0A2805
:1015B400E2AE0A28E2AE0A28E2AE0A28E2AE0A281F
:1015C400E2AE0A28E2AE0A28E2AE0A28E2AE0A280F
:1015D400E2AE0A28E2AE0A28E2AE0A28E2AE0A28FF
:1015E400E2AE0A28E2AE0A28E2AE0A28E2AE0A28EF
:1015F400E2AE0A28E2AE0A28E2AE0A28E2AE0A28DF
:10160400E2AE0A2868AF0A285EAF0A2854AF0A2857
:101614004AAF0A2840AF0A2836AF0A282CAF0A2856
:1016240022AF0A2818AF0A280EAF0A2806AF0A28E4
:1016340053746172747570207461736B00000000E0
:10164400E8FFFFFFF4FFFFFF000000000C000000B4
:10165400180000004000000000000000000000002E
:101664000000000000000000000000000000000076
:101674000000000000000000000000000000000066
:101684000000000064D50A2878D50A288CD50A28D9
:10169400A0D50A2844D50A2824D50A2814D60A280D
:1016A40028D60A283CD60A2850D60A28F4D50A286F
:1016B400D4D50A28DCFC0A28DCFC0A282CFD0A28DC
:1016C400DCFC0A2830FD0A28DCFC0A28DCFC0A2899
:1016D400DCFC0A28DCFC0A28DCFC0A28DCFC0A28DE
:1016E40014FD0A28DCFC0A28DCFC0A28DCFC0A2895
:1016F400DCFC0A28DCFC0A28DCFC0A2818FD0A2881
:10170400DCFC0A28DCFC0A28DCFC0A281CFD0A286C
:10171400DCFC0A2820FD0A28DCFC0A28DCFC0A2858
:10172400DCFC0A28DCFC0A28DCFC0A28DCFC0A288D
:10173400DCFC0A28DCFC0A28DCFC0A28DCFC0A287D
:10174400DCFC0A2824FD0A28DCFC0A28DCFC0A2824
:10175400DCFC0A28DCFC0A28DCFC0A28DCFC0A285D
:10176400DCFC0A28DCFC0A28DCFC0A28DCFC0A284D
:10177400DCFC0A2828FD0A28DCFC0A28DCFC0A28F0
:10178400DCFC0A28DCFC0A28DCFC0A28DCFC0A282D
:10179400DCFC0A28DCFC0A28DCFC0A28DCFC0A281D
:1017A400DCFC0A28DCFC0A28DCFC0A28DCFC0A280D
:1017B400DCFC0A28DCFC0A28DCFC0A28DCFC0A28FD
:1017C400DCFC0A28DCFC0A28DCFC0A28DCFC0A28ED
:1017D400DCFC0A2810FD0A284800000090000000E4
:1017E400D900000021010000B10100004202000004
:1017F4008A020000D20200004100000082000000C2
:10180400C30000000401000086010000080200007B
:10181400490200008A02000056000000AC000000EB
:10182400020100005801000004020000B0020000A0
:10183400060300005C030000080400007B040000B1
:101844000A0500009A05000051000000A3000000F2
:10185400F400000045010000E80100008A020000D5
:10186400DB0200002D030000CF0300003B04000056
:10187400C30400004A050000490000009200000073
:10188400DB00000025010000B70100004902000050
:1018940092020000DB0200006E030000CF03000090
:1018A40049040000C30400009E0D0B28980D0B286A
:1018B4008E0D0B28880D0B286E0D0B28A60D0B28FA
:1018C40050390B2896370B28C2370B2832390B288E
:1018D40040390B28C2370B28B6370B28B6370B28EC
:1018E400C2370B28583F0B28F03E0B28D83E0B2854
:1018F400403F0B28283F0B280C3F0B2896510B2800
:101904007C510B2862510B2848510B282C510B2871
:10191400B2510B2800000000000000000503010084
:101924000604020000010202030303030404040486
:101934000404040405050505050505050505050557
:101944000505050506060606060606060606060637
:101954000606060606060606060606060606060623
:101964000606060607070707070707070707070707
:1019740007070707070707070707070707070707F3
:1019840007070707070707070707070707070707E3
:1019940007070707070707070707070707070707D3
:1019A40007070707080808080808080808080808B7
:1019B40008080808080808080808080808080808A3
:1019C4000808080808080808080808080808080893
:1019D4000808080808080808080808080808080883
:1019E4000808080808080808080808080808080873
:1019F4000808080808080808080808080808080863
:101A04000808080808080808080808080808080852
:101A14000808080808080808080808080808080842
:101A2400080808082464A50005192D41555D000027
:081A3400060505060707080876
:101A400001A001A001A001A001A001A001A001A08E
:101A500001A001A001A00000511106C4EF70C8BD93
:101A6000A2407D553101828000000000835745006F
:101A7000111126C806CC22CA3EC421472EC20441F9
:101A8000637CF714138777FF699F9357370013849C
:101A9000170016043EC6B38784003EC037140248C0
:101AA00094401245938404022320D48083A644FEEC
:101AB0002320D48083A684FE2320D48083A6C4FE62
:101AC0002320D48083A604FF2320D48083A644FF50
:101AD0002320D48083A684FF2320D48083A6C4FF40
:101AE0002320D480EF60C8C0010001000100010084
:101AF00001000100010001000100010001000100DE
:101B000001000100010001000100010001000100CD
:101B100001000100010001008247E393F4F8A247AD
:101B2000138787FFB247B307F040B3E7E720E99F89
:101B30003EC4A247371708281307479C9D8BB3C79D
:101B4000E7209C4382878247984391073EC0B7179E
:101B5000024823A0E7808247984391073EC0B71709
:101B6000024823A0E7808247984313844700B717B1
:101B7000024823A0E7801840930744003EC0B717EF
:101B8000024823A0E7808247984313844700B71791
:101B9000024823A0E7801840B7170248110423A089
:101BA000E7801840930744003EC0B717024823A0BF
:101BB000E7808247524412459843E240C244B71737
:101BC000024823A0E78071016F6088B2024465B7C4
:101BD0000244C1BF0244C1B726C0A1BF511122C2F5
:101BE0002A8437050028A2851305856706C4EF708F
:101BF000B8B0A2851244A240370500281305056736
:101C000031016F7078AF00004111AE8706C60947F9
:101C1000AA856383E7046365F7029DE7370500281B
:101C2000130585692EC0EF7038AD82453705002851
:101C300013050569EF7058AC0145B240410182803F
:101C40000D470945E39BE7FE370500281305055BB3
:101C5000EF7098AA0145D5B737050028130505612F
:101C6000EF7098A90145D1BF00000000894763E3E8
:101C7000A702B7170828938787A13345F5201C4191
:101C800003D7470063F7E5009C43B3C7F52090C333
:101C9000828091E28280E39FE5FE944313871500E2
:101CA000B3C5D52090C12392E700828000000000D8
:101CB000511122C22A8437050028A28513058568A0
:101CC00006C4EF7078A3A2851244A240370500280D
:101CD0001305056831016F7038A20000E19D05E52C
:101CE0009387C5003707002893061005130787461A
:101CF0008607E59FB3C7D70AB3E7A70AE59FB3A74F
:101D0000E720888782809397150093061005370790
:101D10000028938737021307C750E59FB3C7D70A38
:101D20008146B3E7D70AB3A7E720888782800000FF
:101D3000130141F722C326C106C58A840144B7179F
:101D40000028010083A6C7B1619C014583C5A60296
:101D500083C686028904B305B4020504B695E59DE1
:101D6000EF5018E69376F40F239FA4FE13070002AA
:101D7000B7170028659CE397E6FC84000144010046
:101D800083A6C7B1619C054583C5A60283C696029A
:101D90008904B305B4020504B695E59DEF5058E2F9
:101DA0009376F40F239FA4FE13070002B7170028B1
:101DB000659CE397E6FC835701003707090037036A
:101DC0000128BA971303033BB70601282320F30029
:101DD000130721009386463B9305E1033C87108758
:101DE0001107B207B2979CC29106E399E5FE8357AB
:101DF00001040357E103B706030037050128B6972E
:101E00001305453FB70601282320E3041CC113072F
:101E100021049386863F9305E10701003C871087E4
:101E20001107B207B2979CC29106E399E5FE83576A
:101E3000E107AA401A443CC18A441301C1088280C8
:101E40000DE9B707012803A74732914763E1C702AD
:101E5000B71708289387479E3346F6201C4282878F
:101E600033A7E5201C879D8AE19BD58F1C8F6F507F
:101E700038D4B707012803A78732C1BF33A7E520AD
:101E8000548B6F50F8D2B3A5E520948D6F5058D283
:101E900033A7E5201C878D8A8E069D9BD58F1C8FCE
:101EA0006F5018D133A7E5201C879D8A960693F7BB
:101EB000F7F1D58F1C8F6F50B8CF0000F59999C5F9
:101EC000054789476384E5103E85828037070028EF
:101ED00083568743B7070F0037160248BE9693070D
:101EE00087432320D6809385E700130787430100AB
:101EF000348709072320D680E31CB7FE01000100C8
:101F000001000100010001000100010001000100C9
:101F100001000100010001000100010001000100B9
:101F2000010001000100010001000100B715024895
:101F3000938607013E87010003560701090723A086
:101F4000C580E31BD7FE0100010001000100010074
:101F50000100010001000100010001000100010079
:101F60000100010001000100010001000100010069
:101F700001000100010037160248010003D70702E3
:101F800089072320E680E39BD7FE010001000100C2
:101F90000100010001000100010001000100010039
:101FA0000100010001000100010001000100010029
:101FB00001000100010001000100511106C4EF50B1
:101FC00038F3A24081473E8531018280B707210066
:101FD00037170248C1072320F78095679387274367
:101FE0002320F780D9BF0000511106C437170248DB
:101FF000B7071B002320F780B707002893874742C5
:102000009443CC4390472320D780D4472320B780E4
:102010009C4B2320C7802320D7802320F780EF50BC
:1020200038EDA240014531018280000037070028C9
:102030001307C7415C831483370615009A075111B3
:10204000B29706C4B6973716024874832320F680E9
:10205000834747002C8313976600B207BA97AE9761
:102060002320F680EF50D8E8A2400145310182805C
:1020700000000000DD4763E9A7029D4763E6B70261
:10208000B71708289387879FB3C5F5209C4182879F
:10209000B707012883A70732058A0E063325F520E6
:1020A0001C85DD9BD18F1C8D8280B707012803A77B
:1020B0000732058A0A063327E5201C87ED9BD18F5E
:1020C0001C8F8280B707012803A70732058A0606FE
:1020D0003327E5201C87F59BD18F1C8F8280B707A3
:1020E000012803A70732058A3327E5201C87F99BBF
:1020F000D18F1C8F8280B707012803A707323D8A42
:1021000012063327E5201C8793F7F7F0D18F1C8F39
:102110008280B707012803A707321D8A22063327CA
:10212000E5201C8793F7F78FD18F1C8F8280B7072C
:10213000012803A70732E1763D8A3327E5201C8773
:102140009386F67F2E06F58FD18F1C8F8280B7077E
:10215000012883A70732B327F520908F82800000E3
:10216000914763EAB70009E985476301F6068947A5
:102170006306F6040DCA82807D150547E36DA7FE50
:10218000630AF60695476300F6068D47E315F6FEEB
:10219000B70700289387C741AE97988392063D8B77
:1021A000558F988B8280B707002893874742B3C723
:1021B000F5209887C206558F98C38280B7070028FC
:1021C00093874742B3C7F52094C38280B70700289E
:1021D00093874742B3C7F52098434176E99E718FB4
:1021E000558F98C38280B70700289387C741AE9761
:1021F000948B8280B70700289387C741AE97988356
:10220000BD8A419B558F988B82800000232005203A
:10221000828000006F6058E600000000B7070248A7
:102220003E951C41B395D50033F6C740D18D0CC106
:1022300082800000B7070248AA97944303A50520AF
:10224000930715003347B52014C323A0F5208280DF
:1022500000000000211106CA22C826C66359A00248
:10226000B3A7B520939447009D8C938734FF3EC459
:1022700037070001B70702482A843E967D17010000
:1022800004427D14659C91ED6397E40075F8B707EF
:1022900000019384F7FFD24042442685B244610195
:1022A000828022452EC232C0EF5098D7B707000176
:1022B000924502461387F7FFC1BF00008981B3A58D
:1022C000B520939745008D8F3111CD173EC0B707CC
:1022D000024822C6AA973704000126C406C83EC297
:1022E00099447D140245EF50B8D3924788439387B1
:1022F000F4FFB3C4070863138500EDF4C240324411
:10230000A2445101828000009307301F63CCB700C4
:1023100085476308F50409476308E5000DC5856531
:102320009385C5572E85828011476341B706638424
:10233000F508638EA50685679387E773B3C5B52057
:10234000BE95ED9DC5B7B94763CBB704638DF50462
:102350008567FD159387C796B3C5B520BE95ED9DDE
:10236000D1B71307100BB3C7B520E99F6349B70076
:10237000056713078738BA979395576065B7056760
:10238000130707FABA979395576069BF8567ED15EC
:1023900093877775B3C5B520BE95ED9D61B785650B
:1023A0009385A59841B785659385459BA5BF8565B0
:1023B0009385F57285BF856593853574A5B7000053
:1023C0002A878DED85679387479B35456307F7021D
:1023D000FD77938747693305F70095473345F50245
:1023E000659D8280FD779387178D3307F500D14770
:1023F0003347F70271071315476082808547E393DF
:10240000F5FEFD76938746BC334605081303C008E6
:10241000B305F600E99D637CB302938746A8B30534
:10242000F6001305C00DE99D637AB5029386F69810
:1024300036960145699EE362C3FCB307D700514756
:10244000ED9FB3C7E702D1071395476082803E95A1
:10245000D1476D9D3345F502659D82803305F700B8
:10246000D1476D9D3345F5022105659D82800000B1
:102470009307400363ECA702AD4763E9B702B717C0
:102480000828938747A2B3C5F5209C418287B717D8
:10249000002837170028B146938707873325A520E2
:1024A000230ED7843345F520A305C5008280B717D6
:1024B000002837170028AD46938707873325A520C6
:1024C000230ED7843345F5202305C5008280B71736
:1024D0000028938707873325A5203345F5201089E9
:1024E0008280B7170028938707873325A5203345B7
:1024F000F52050898280B7170028938707873325F6
:10250000A5203345F52030898280B71700289387AE
:1025100007873325A5203345F52070898280B717BA
:102520000028938707873325A5203345F52023020C
:10253000C5008280B7170028938707873325A52019
:102540003345F520A302C5008280B7170028938782
:1025500007873325A5203345F5202303C500828056
:10256000B7170028938707873325A5203345F52023
:10257000A303C5008280B7170028938707873325F8
:10258000A5203345F5202304C5008280B717002815
:10259000938707873325A5203345F520A304C5007D
:1025A00082800000B54763E3A70091C18280B7171E
:1025B000002893870786AA97908B828000000000EE
:1025C000511122C206C42A843285B9E9EF605886C7
:1025D000B717002893870786AA979C833717F300BD
:1025E00013070730BA97371702482320F780B70739
:1025F000002883C6877F99CEB70700289387C77ABC
:1026000037160248B3C6F620984391072320E68088
:10261000E39CD7FE22851244A24031016F50588DB1
:10262000EF601881B717002803C6C7853325A5209A
:10263000931625001DCA37070028B7150028130771
:10264000C77F93850587371502483366E62001006A
:1026500083474700032307002107B697AE979C8363
:102660009A972320F580E315C7FEB707002883C695
:10267000877ACDD2B70700289387077737160248A5
:10268000B3C6F620984391072320E680E39CF6FE2C
:1026900022851244A24031016F509885000000004D
:1026A00015E1B707002803C5877F1387877FB70722
:1026B00000284D439387C77A63F3A502B3C7F5207B
:1026C00090C38280B707002803C5877A1387877A6B
:1026D000B7070028394393870777E3E1A5FE99C23E
:1026E0006303B5008280E37F65FE93061500148BBB
:1026F0003345F52010C1828000000000B717002884
:102700002386A7AE82800000B7170028938707AF03
:1027100037170028232EF7B03707010113071710CA
:10272000D8C76F50E8C80000B707012893878743D0
:1027300037770128232AF70423A007200145828048
:1027400000000000B777012883A747053707024834
:102750003A9523A007200CC13E856F5068F9000010
:10276000B777012803A747052320072011CE370399
:1027700002483346A62001001C41944111059A9756
:1027800094C39105E31AC5FE3A856F5068F60000C0
:10279000B70702483E95084182800000B71700281D
:1027A00083A7C7B188CF828000000000511122C2E8
:1027B0003774012803254405814526C006C4B71493
:1027C0000028EF5068C003A7C4B18947184F6309B8
:1027D000F70203254405EF5028BE83A7C4B10325A3
:1027E00044058C4FEF5048BF03254405EF50C8BF48
:1027F000032544051244A240824431016F5048BE73
:10280000032544058945EF5028BCE1B700000000CE
:10281000B717002883A7C7B1C8D382800000000083
:10282000211126C6B714002883A6C4B106CA22C83F
:10283000D84AC8CA2A84133717003AC2EF50C8EAE8
:1028400083A6C4B137770128AA87032547052398B3
:10285000F600A2853EC0EF50B8AC377701280325BB
:1028600047050246A285EF50289912479336140077
:10287000639EE60A03A7C4B11C4F3EC2B9E3B77614
:10288000012803A54605824685679387074A638F1B
:10289000F60E824609669307F68B6397F600B71724
:1028A000002883C7C7AEF1EB831647020246814575
:1028B000EF5098C49247D2404244B2445D8D6101CA
:1028C000828002C2014303A7C4B1B7770128024640
:1028D000831647020C4F03A547051AC4EF5058C38F
:1028E0002243137785002A840946930613001DC7E7
:1028F0000543E39AC6FC0545EF5098B883A7C4B1D9
:1029000037770128032547050246839647028C4FF7
:10291000EF5018C02A840145EF5098B692473365AE
:10292000F400D2404244B2446101828003A7C4B1A2
:10293000B777012803A547050C4F2286EF50D8BF73
:1029400003A7C4B1B7770128AA860C4F03A5470592
:10295000228636C2EF5058AB924603A7C4B1B3E704
:10296000A600144F3EC2E38C06F0B777012803A5FA
:102970004705A285EF50D8BAB1B781461306068C39
:102980008145EF5078B792475D8D61BFB71700283A
:1029900083C7D7AE8146E38907F009BF0000000076
:1029A000511122C2377401280325440506C4EF5093
:1029B000B89D03254405EF50B8A5032544051244EE
:1029C000A24031016F5058A300000000B717002843
:1029D00083A7C7B137770128032547058C4F6F5070
:1029E000B8B60000B717002883A7C7B12A86CC4B1A
:1029F000B777012803A547056F50989400000000A1
:102A0000511126C0B774012803A5440506C422C28B
:102A1000EF5098922A8403A54405EF50F88EA24007
:102A2000228512448244310182800000511126C067
:102A3000B774012803A5440506C422C2EF50D890FC
:102A40002A8403A54405EF50388CA2402285124405
:102A50008244310182800000511126C0B7740128E0
:102A600003A5440506C422C2EF5098922A8403A508
:102A70004405EF507889A2402285124482443101F6
:102A800082800000B717002883A7C7B1619D8DE140
:102A900083C787021D8DFD47659D3345F50AB777CE
:102AA0000128B365B50A03A54705E59D6F5058A9F0
:102AB00083C797021D8DFD4793154560B3C5F50A81
:102AC0008147B3E5F50AB777012803A547056F509D
:102AD00038A7000037770128AA87032547052E86E7
:102AE000BE856F50F888000037770128AA87032534
:102AF00047052E86BE856F50B886000037770128BF
:102B0000AA8703254705B2862E86BE856F50D893C7
:102B100000000000B717002883A7C7B1211126C6FF
:102B2000B77401288C4F22C82A8403A5440581422A
:102B300016C006CAEF5058A103A544058145EF50C1
:102B4000B89303A544052286DD45EF507881824283
:102B500003A5440513F3F20F1A86A28516C21AC004
:102B6000EF50988003A5440522869145EF50588088
:102B700003A54405A285EF50A8FD03A54405A28541
:102B8000EF5008FD92429376F50F93558500138719
:102B90004606E99D0D43138645069307800C619F09
:102BA000619E63896204024363E2E70463E0C70451
:102BB00093F7F50F3EC40146224703A54405A285BD
:102BC00032C236C0EF50D8891246154782460506F4
:102BD0009377F60F659EE391E7FEA285424403A535
:102BE0004405D240B24461016F5088FD0503931241
:102BF0004360B9BF9376F50F65BF0000B777012832
:102C00002A8703A54705AE87BA85931646601396B3
:102C100047606F5078850000B777012803A5470506
:102C20006F50989400000000511122C2377401289F
:102C3000AA850325440506C4EF50188A03254405D8
:102C40008545EF5078831244A24031016F5048C24D
:102C500000000000211126C606CA22C82EC232C4B6
:102C6000AA8455E11145EF5028C39D4737740128C8
:102C70000325440581460D470146A685EF5058833C
:102C8000AA8703254405A6853EC0EF5068F10325B9
:102C90004405A685EF5048F503254405EF50C8E7E5
:102CA00003254405A685EF5028EB032544058145FF
:102CB000EF5088FC0325440526868D45EF5048EBF0
:102CC00003254405830541002686EF5068E9032566
:102CD0004405A685EF50C8E522470946A685088B1E
:102CE00003254405EF5048E803254405A685EF5029
:102CF00028E603254405EF50A8E1D24042440245AE
:102D0000B244610182804145EF5008B9B147B9BF73
:102D100000000000411122C43774012826C2AA8491
:102D20000325440506C62EC023200520B7170248F8
:102D3000A5E03707080023A0E780EF50689B032534
:102D40004405A685EF5048F103254405A685EF50BC
:102D5000A8E8032544058545EF5008F203254405FE
:102D6000EF5088DAEF50C8C6024603254405A68511
:102D7000EF5088DF03254405A685EF50E8F50325CD
:102D800044052244B240A685924441016F5048F563
:102D90003707020023A0E780EF5088954DB7000069
:102DA000411122C43774012826C2AA840325440590
:102DB00006C62EC023200520B7170248BDE83707F6
:102DC000080023A0E780EF50A892B757F00037170C
:102DD000024893860710032544052320D780938754
:102DE00007E02320F780EF50A89003254405A6852F
:102DF000EF5088E603254405EF5008F2EF5048BD38
:102E0000032544058545EF5028E702460325440580
:102E1000A685EF5068D503254405A685EF50C8EB7D
:102E2000032544052244B240A685924441016F50D7
:102E300028EB3707020023A0E780EF50688B71B7BB
:102E400000000000511126C0B774012822C22A8454
:102E500003A544052E86A28506C4EF50E8D003A53D
:102E60004405A285EF5048E703A544058545EF508A
:102E7000A8E003A54405EF5028C903A54405A28591
:102E8000EF5008D5AA8703A54405A2853E84EF50DC
:102E900028E5EF50E8B3A240418D1244824431014D
:102EA00082800000411126C2B774012822C42A84FE
:102EB00003A544052E87B287A2853A8606C63EC082
:102EC000EF5008D282472A8703A544052286BA8498
:102ED00093954760EF50C8C8B2402244268592447B
:102EE0004101828000000000411122C43774012892
:102EF00026C2AA8403254405AE87A68506C63EC021
:102F0000EF5008C382470946A685888B03254405F0
:102F1000EF5088C50145EF5028983D468D452685E0
:102F2000EF50089C03254405D5E0B787F000232027
:102F30000520371702482320F780EF4078FB032550
:102F400044053797F000130707E023200520B71743
:102F5000024823A0E780EF40B8F903254405B7876E
:102F6000F000138707D023200520B717024823A0BD
:102F7000E780EF40F8F703254405B787F000938713
:102F8000075023200520371702482320F780EF4001
:102F900038F60325440526868545EF5068BD032590
:102FA0004405EF50E8B6032544058145EF50C8CCF1
:102FB00003254405A685EF50A8BE032544052244F9
:102FC000B240A685924441016F5088B8B767F000BF
:102FD0001387072023200520B717024823A0E78086
:102FE000EF4018F1032544053777F000B717024882
:102FF0002320052023A0E780EF4098EF0325440518
:10300000B767F000138707F023200520B7170248A1
:1030100023A0E780EF40D8ED03254405B767F00013
:103020009387077023200520371702482320F78055
:10303000EF4018ECB9BF0000B717002883A7C7B14D
:10304000111122CA83D707013774012826C83EC24E
:10305000AA84B737F300032544053717024893873E
:10306000175006CC2320F78036C632C426C0AE8463
:10307000EF4018E82245E99CEF50088202458D4553
:103080003D46EF50E885024603254405814526C4A8
:10309000EF5008AE032544058145EF50E8BD824559
:1030A00003254405EF5048AB824503254405EF5006
:1030B00028C392470567930677BBA697014693946A
:1030C000576063D796001307E7723326970005060B
:1030D000032544058945EF5028C592470567130726
:1030E000074A6383E716924709679306F78B63984D
:1030F000D700B716002883C6C6AE63950616B71765
:10310000002803A7C7B10325440526868316470276
:103110008945EF50E8BF3757F00093060720032595
:103120004405B714024823A0D480130707D023A076
:10313000E480EF40F8DB824703254405C9EB37877D
:10314000F0002320052023A0E480EF4078DA032557
:103150004405B796F000938606E02320052023A0BF
:10316000D480EF40F8D8032544053787F000930654
:1031700007D02320052023A0D480EF4078D73787BD
:10318000F0009306074023A0D4809306076023A095
:10319000D4809306072023A0D480B776F0009386CE
:1031A00006700325440523A0D4801307079023A0AD
:1031B000E480EF40F8D3032544058245EF5048975B
:1031C000B247888BE2405244C24471018280376723
:1031D000F000930607202320052023A0D480EF4091
:1031E00038D103254405B776F0002320052023A01D
:1031F000D480EF40F8CF032544053767F00013066D
:1032000007F02320052023A0C480EF4078CE376745
:10321000F00013060760B776F00023A0C480938601
:10322000068023A0D4809306074023A0D4800325E2
:103230004405930607B023A0D480130707D023A02A
:10324000E480EF40F8CA85BF371700280347D7AEA0
:10325000E30707EA03254405814626868945EF50A2
:1032600028AB55BDA247032544051307078C3386B9
:10327000E700814689456D9EEF5088A969BD000031
:10328000B7770128AA8503A547056F506894000009
:10329000B77701282A8303A54705BA873687B28600
:1032A0002E869A856F50C89C000000005111B717F8
:1032B000002806C483A7C7B101E983858702EF40D0
:1032C0003890A2403101828083859702EF40588F69
:1032D000A24031018280000037770128AA870325A8
:1032E000470521113E8722C83EC02E84B287BA8589
:1032F000094626C63EC2B68406CAEF50E887416733
:103300004117F98C9247138704013AC43EC2B7773C
:10331000012803A54705824526860904EF50489AEF
:10332000B777012803A5470582458504EF504887F4
:103330001377F50F9247231FE4FE2247699D2181F1
:10334000888F8907E394E4FCB777012803A5470534
:1033500082472320052089EF4244D240B244B71768
:1033600002483707080023A0E78061016F4058B882
:103370004244D240B244B71702483707020023A0A4
:10338000E78061016F40D8B637770128AA87032507
:1033900047052E86BE856F50A89200000111377335
:1033A000012822CC2A840325430526CAAE84A2859F
:1033B00006CE32C236C43AC63EC8EF506892C24703
:1033C0003773012822473EC09246B2470325430582
:1033D0002686A285EF50488EF2406244D2440561B1
:1033E00082800000B77701282A8303A54705BA87A2
:1033F0003687B2862E869A856F50088D00000000B1
:10340000511126C0B714002883A7C4B106C422C234
:103410008C4F9DC937140028130404B7B7770128CF
:1034200003A54705EF50C88C83A7C4B1AA84884F71
:10343000EF50888B91C048C08547A240A304F40098
:103440001244824431018280371400281304C4B727
:10345000F1B7000011112E872AC2AA853A8506CC41
:1034600022CA26C83AC0EF4038A8B71400282A87D5
:10347000924683A7C4B1377401283A863AC60247F8
:10348000032544052398D700BA85D8CBEF40C8D68A
:1034900083A7C4B10246032544058C4FEF4058F67C
:1034A00003A7C4B1AA8702460C4F032544053EC4B6
:1034B000EF4098F6A24782452A8703254405D98F15
:1034C0003EC0EF40F8E583A7C4B18C4FADE5371798
:1034D00000281307C7B71483B1E6924605671307A0
:1034E000074A032544056380E60A924609661307E6
:1034F000F68B6397E600371700280347C7AE3DEB0E
:10350000839647023246EF4038FF8247B3E4A70074
:1035100003254405EF40D8E6E24052442685C244E4
:1035200071018280034797004DFBEF4078C883A765
:10353000C4B18C4F5DB737170028130707B7148342
:1035400081C6034797000DC38396470203254405B0
:103550003246EF40F8FB8247E2405244B3E4A70012
:103560002685C24471018280EF4098C483A7C4B10C
:103570008C4FD9BF81461306068CEF40F8F782477F
:10358000B3E4A70071B7371700280347D7AE2DDB88
:1035900032468146EF4058F68247B3E4A7008DBF1C
:1035A00000000000B717002883A7C7B137770128AC
:1035B000032547058C4F6F4038F90000B777012885
:1035C00003A547056F40D8D400000000B777012855
:1035D00003A547056F4058D300000000B7770128C6
:1035E000AA8503A547056F40B8D60000B777012824
:1035F00003A547056F4058E800000000B777012891
:1036000003A547056F40D8EC00000000B7770128FC
:1036100003A547056F4058D000000000B777012888
:1036200003A547056F4058D80000000037770128F0
:10363000AA87032547052E86BE856F40F8D2000075
:10364000B7770128AA8503A547056F4078CE00000B
:10365000B7770128AA8503A547056F4078E80000E1
:10366000B7770128AA8503A547056F40F8E6000053
:10367000B777012803A5470589456F40F8EC00009E
:10368000B717002803A7C7B18567B77601280316C7
:1036900007019387074A03A546050C4F6305F60209
:1036A00089679386F78B6317D600B716002883C601
:1036B000C6AE89E6831647026F4018E4814613863A
:1036C000078C6F4078E3B717002883C7D7AEFDD3C8
:1036D00081466F4078E20000B717002883A7C7B182
:1036E000377701280325470523AC07006F40D8CC66
:1036F00000000000411126C2B714002883A7C4B1FE
:1037000022C437740128CC4B0325440506C6EF407C
:1037100038C103254405EF40A8CB03254405814566
:10372000EF4088CB03254405EF4008CC0325440532
:10373000EF4008CB83A7C4B103254405CC4BEF4031
:10374000B8CF83A7C4B12A87032544050396070190
:10375000CC4B3AC0EF4048AA83A7C4B10325440527
:10376000D04B8C4FEF4058CAB71700289387C7B784
:1037700002479483B364A70081C683C7970099CF9B
:10378000EF4098AEAA8703254405DD8CEF4058BF73
:10379000B24022442685924441018280EF4058A1E4
:1037A000C5B70000411126C2B714002803A7C4B151
:1037B00022C4377401284C4B0325440506C6EF404C
:1037C00038B603A7C4B1032544050C4FEF40C8BF6A
:1037D000032544058945EF4028C003254405EF40F3
:1037E000A8C003254405EF40A8BF03254405EF40CA
:1037F00038C503A7C4B103254405504B0C4FEF4017
:10380000B8D203A7C4B1AA8703254405031607014C
:103810004C4B3EC0EF40489E37170028130707B7B0
:10382000148381C6034797001DC383A7C4B1032532
:10383000440583964702039607018C4FEF4058CD0D
:103840008247B240224492445D8D41018280EF4024
:103850003896E1BF00000000B777012803A54705AF
:103860006F4018CA00000000411126C2B774012839
:10387000AA8503A5440506C622C42EC0EF40D8B1D0
:1038800082452A8403A54405EF4018B603A54405E4
:10389000EF4018A8B2402285224492444101828020
:1038A00000000000411126C2B7740128AA8503A5B3
:1038B000440506C622C42EC0EF4098AD82452A8436
:1038C00003A54405EF4058B103A54405EF40D8A334
:1038D000B2402285224492444101828000000000CF
:1038E000411122C43774012826C2AA840325440545
:1038F00006C62EC0EF4058AAAA87024603254405F3
:10390000A6853EC0EF40D8AD8247C98F3EC0032593
:103910004405ADE8B7140248B787F000232005201E
:1039200023A0F480EF40C8DC032544053797F0005E
:10393000130707E02320052023A0E480EF4048DBA5
:1039400003254405B787F000138707D023200520FF
:1039500023A0E480EF40C8D903254405B787F000D1
:10396000938707502320052023A0F480EF4048D8F8
:1039700003254405EF40D899B240224402459244C1
:1039800041018280B767F000B7140248138707200F
:103990002320052023A0E480EF4088D5032544059B
:1039A0003777F0002320052023A0E480EF4048D49F
:1039B00003254405B767F000138707F0232005208F
:1039C00023A0E480EF40C8D203254405B767F00088
:1039D000938707702320052023A0F480EF4048D16F
:1039E00041BF0000411126C2B7740128AA8503A572
:1039F000440506C622C42EC0EF40989982452A8409
:103A000003A54405EF40D89CAA8703A544055D8C17
:103A1000EF40988FB2402285224492444101828037
:103A200000000000B777012883A547056F40589C28
:103A300000000000B717002883A7C7B1AA86039625
:103A40000701CC4BB777012803A547056F4048CB4A
:103A5000000000006F3058FB000000006F3058FB82
:103A6000000000006F30D8F9000000006F40C8C9A6
:103A7000000000006F40C8C9000000006F40489778
:103A8000000000006F404898000000006F40C8969A
:103A9000000000006F40C896000000006F40589979
:103AA000000000006F40D897000000006F40D897DA
:103AB00000000000B717F50037170248938707800A
:103AC0002320F7806F40C8C200000000B707F50050
:103AD00037170248938707702320F7806F4048C14B
:103AE000000000008DE93767F400130707D0B7071F
:103AF0000020BE964206B707FF0F7D8E93F7F60FA4
:103B0000B71502483696BA9723A0F580218223A0E4
:103B1000C5806F40E8BD3737F400130707F0C1BF19
:103B200000000000511122C206C437140248A9E166
:103B30003767F40013040433130707D04206B707AE
:103B4000FF0FF18F37060010B7160248B29723A077
:103B5000E680A18323A0F680EF4088B91305000218
:103B6000EF4008CC0840A2401244699D3101828098
:103B70003737F40013040431130707F0C1B700000E
:103B8000111122CA26C806CC2E84B28436C63AC485
:103B90003EC22AC0EF40D88B92472247B246A28548
:103BA000B397E700A98F5244FD8EE240A98E268686
:103BB0000245C2447101E99E6F40989B00000000DD
:103BC0003111B7C7F0001383073006C83717024812
:103BD00022C626C4232067802A84AE8432C236C01F
:103BE000EF4008B12285A685EF40988B82461246A9
:103BF000A6852285699EEF40388A2285EF4048AF2E
:103C0000B7C7F00093860760371702482320D78094
:103C10009387075022852320F780EF4068AD294421
:103C200011A095E4B717024883A7070B7D1413056D
:103C30000002619C93D4F748EF4088BE7DF0C240FB
:103C4000324413C514000E05A24451018280C240C3
:103C50003244A24401455101828000003111B7175E
:103C6000F500138307F006C83717024822C626C49A
:103C7000232067802A84AE8432C236C0EF4048A732
:103C80002285A685EF40D88082461246A6852285E9
:103C9000699EEF4068FF2285EF4088A5B717F500C1
:103CA00093860720371702482320D7809387071071
:103CB00022852320F780EF40A8A3294411A095E492
:103CC000B717024883A7070B7D1413050002619CF8
:103CD00093D46748EF40C8B47DF0C240324413C566
:103CE00014000E05A24451018280C2403244A24415
:103CF0000145510182800000B717024899E5370756
:103D0000820023A0E7806F40A89E3707810023A090
:103D1000E7806F40E89D0000B787F2003717024840
:103D2000938717102320F7806F40889C00000000C5
:103D3000B787F20037170248938707102320F780D0
:103D40006F40089B00000000511106C40947AA8774
:103D5000638BE504636BB7028DEDB7170248370735
:103D60008C0023A0E780EF40A898B717002883A70E
:103D700007B2B3A7F720139547001D8D4D15EF40EF
:103D800028AA0145A240310182800D470945E39BE5
:103D9000E5FE37170248B70687002320D7803E8507
:103DA000EF400895F9BF37170248B7068500232072
:103DB000D7803E85EF40C893E9B70000B707F00011
:103DC00037170248938607302320D7809387071040
:103DD0002320F780B717F000938707902320F78000
:103DE0006F40089100000000B707F0003717024845
:103DF000938607402320D780938707202320F780CE
:103E0000B717F000938707A02320F7806F40488EF4
:103E100000000000B727F0003717024893860750CC
:103E20002320D780938607102320D78093870730DD
:103E30002320F7806F40C88B00000000B727F000F8
:103E400037170248938607602320D7809386072080
:103E50002320D780938707402320F7806F4048892D
:103E600000000000511122C206C42A84EF40C8CBD2
:103E700022851244A24031016F4008CA00000000B0
:103E8000511122C206C42A84EF4008D2228512446E
:103E9000A24031016F4048D300000000511106C418
:103EA000B717024837078D0023A0E780EF4048840A
:103EB000B717002883A747B2B3A7F7201395470089
:103EC0001D8D4D15EF40C895A240014531018280FE
:103ED000000000004111B717002806C622C426C200
:103EE00083A7C7B12A87B5ED83878702634FF6069C
:103EF0003304F640FD47659C3344F40AB7E7F3000A
:103F0000938707903E94B71402483AC0B7078D00D4
:103F10003A8523A0F480EF30B8FDB717002883A7B7
:103F200047B2B3A7F720139547001D8D4D15EF40FD
:103F3000288FB757F100938707B023A0F48002477A
:103F4000B7E7F300938717B023A0F48023A0848001
:103F50003A85EF30F8F9B2402244924401454101DC
:103F6000828083879702E355F6F837E4F300130461
:103F7000049051BF00000000511106C422C226C0A7
:103F8000B7078E00B714024823A0F4802A84EF30CC
:103F900038F6B717002883A787B2B3A7F720139581
:103FA00047001D8D4D15EF40A887B707880023A057
:103FB000F480B707860023A0F480B7A7F0009387AA
:103FC00007D0228523A0F480EF3098F2A24012445B
:103FD0008244014531018280000000005111B7F791
:103FE000F00006C422C226C037140248138707C057
:103FF0002320E480138707A0B7E7F0002320E480A4
:10400000138707402320E480938707202320F48030
:10401000AA84EF30F8EDB7D7F0001387078023208C
:10402000E480938707A026852320F480EF3058ECA6
:10403000B707860026852320F480EF3078EBB7079A
:104040005E002320F48037076000B7C7F00023200C
:10405000E480138707602320E48093870740268548
:104060002320F480EF30D8E8A24012448244014576
:104070003101828000000000511106C422C226C016
:10408000B7078E00B714024823A0F4802A84EF30CB
:1040900038E6B717002883A787B2B3A7F720139590
:1040A00047001D8D4D15EF30B8F7B707880023A0E6
:1040B000F480B7078600228523A0F480EF3058E310
:1040C000A240124482440145310182800000000078
:1040D000511106C4B717024837078E0023A0E780A6
:1040E000EF3018E1B717002883A787B2B3A7F720EE
:1040F000139547001D8D4D15EF3098F2A2400145F4
:104100003101828000000000511106C422C2B707AD
:104110008900371402482320F480EF3078DDB71788
:10412000002883A7C7B2B3A7F720139547001D8DBA
:104130004D15EF30F8EE03250480A2401244699D2E
:104140003101828000000000511106C422C2B7076D
:104150008A00371402482320F480EF3078D9B7174B
:10416000002883A707B3B3A7F720139547001D8D39
:104170004D15EF30F8EA03250480A24012443101C6
:1041800082800000B7E7F30037170248938617B024
:10419000938707902320D780BE952320B7806F3068
:1041A00038D500009E0626065111B296BE9612071B
:1041B00006C422C2BA9685E5B7170248370707003A
:1041C00023A0E78037070C00BA9623A0D7800144CC
:1041D000EF3018D2A2402285124431018280FD15B1
:1041E00085471144E3E6B7FEB7170248416723A0AD
:1041F000E78037070600BA9623A0D7800144C9BFDD
:1042000000000000B7D7F300371702489387173034
:104210002320F780B797F400938707C0BE9523202B
:10422000B7806F30F8CC0000B7D7F30037170248DB
:10423000938717302320F780B797F400938707E020
:10424000BE952320B7806F30B8CA000037170248E8
:10425000B7D7F30099C5938707302320F7806F30D5
:1042600038C9938717302320F7806F3078C8000053
:1042700037170248B7E7F30099C5938707B02320A3
:10428000F7806F30F8C6938717B02320F7806F3020
:1042900038C60000B707F400371702489387077045
:1042A0002320F780B70725002320F7806F3058C4FC
:1042B00000000000B707F400371702489387077023
:1042C0002320F780B70726002320F7806F3058C2DD
:1042D00000000000C167FD17A206FD8E619EB707B2
:1042E0002A003E96B296B717024823A0D7806F30B7
:1042F00038C00000511122C226C006C43717024838
:10430000B70729002320F780938517002320B78063
:10431000938527002320B780938537002320B7801B
:1043200091072320F7803284B684EF3078BC228650
:10433000A68613055400B7150248010083A705801F
:104340000506850613D78700A30FE6FEA38FF6FEAA
:10435000E316A6FEA240124482443101828000008E
:104360009C811882B7062700A2073697BA9737179D
:1043700002482320F780B712024805471543B38748
:10438000E5009C83B306E6009482A2070507D58F5B
:1043900023A0F280E31567FE6F3098B5000000009F
:1043A000B7052800B71702482E96A20623A0C7809B
:1043B000BA9623A0D7806F30B8B3000099ED3717B5
:1043C0000248B7077B002320F780B797F000938758
:1043D00007D02320F7806F30B8B1FD158547E3EC97
:1043E000B7FE37170248B70779002320F780B77761
:1043F000F000938707F02320F7806F3078AF00003C
:104400008DED37170248B7077C002320F780B79758
:10441000F000938707E02320F780B717F0003717E5
:104420000248938707D02320F780B737F00093879F
:1044300007702320F7806F30B8ABFD158547E3EE9A
:10444000B7FCB717024837077A0023A0E780377711
:10445000F00023A0E780D1B700000000B777F2009A
:10446000938707303E96B717024823A0C7806F3066
:1044700038A800005111B777F20022C206C43714E1
:104480000248938707402320F480EF3078A6032565
:104490000480A2401244619D31018280000000002E
:1044A000B797F400938707403E96B717024823A0BA
:1044B000C7806F30F8A300008DE1B7077F003E96FC
:1044C000B717024823A0C780511106C4EF3058A285
:1044D000A24081473E8531018280FD150547914705
:1044E000636AB700B7077D003E96B717024823A05E
:1044F000C780D9BF3E85828000000000511106C4EC
:1045000022C28DEDB71702483707800023A0E7804D
:104510000144B717F00037170248938707D02320CC
:10452000F780B737F000938707702320F780EF30CC
:10453000389CA2402285124431018280FD158547B6
:104540001144E3E8B7FCB717024837077E0023A001
:10455000E78001447DBF00001C86C1629882A207EB
:10456000FD12B7053300B3F75700AE977111BA9734
:1045700022C0371702482320F780930526001383B3
:10458000260013070601B713024801009C85034467
:1045900003008905A207B3F75700A29723A0F38071
:1045A0000903E315B7FE010001000100010001004D
:1045B00001000100010001000100010001000100F3
:1045C00001000100010001000100010001000100E3
:1045D0000100010001004163C106130606027D13BC
:1045E000B71202481C878C820907A207B3F767003D
:1045F000AE9723A0F2808906E316E6FE024411017D
:104600006F30188F91E9B7070C003E96B717024834
:1046100023A0C7806F30D88DB70706003E96B71726
:10462000024823A0C7806F30B88C0000B707340061
:104630003E96C167A206FD17B7150248FD8E619F21
:1046400023A0C580BA9623A0D5806F30788A000059
:10465000C167FD17A206FD8EB7073600BE96B727C5
:10466000F40037170248619E938707B02320F78034
:10467000B2962320D7806F30B8870000B727F400A8
:1046800037170248938707B02320F780B707320017
:104690002320F7806F30D8850000000037A7F40092
:1046A000B71702481307078023A0E78037074200A7
:1046B00023A0E7803707440023A0E78037074600A0
:1046C00023A0E7806F30D88200000000511106C49B
:1046D00022C226C089476389F50E2A8463EEB70497
:1046E000B5C16308061201009307F6FF054711459F
:1046F000636FF702B7076900B714024823A0F4807C
:104700002285EF30E8FEB717002883A707B4B3A7C8
:10471000F720139547001D8D4D15EF30789003A5B8
:104720000480B70700FF85073E9513351500A240AA
:1047300012448244310182808D470945E399F5FE98
:1047400045F6C1A8B746F100B71402489387069012
:1047500023A0F480EF30C8F937170028130707B2F9
:104760007C43B3A7F720139547001D8D4D15EF30FF
:10477000388BB7076B009907B746F10023A0F48088
:1047800093860680228523A0D480EF3068F6B71781
:104790000028138707B28355470105652286130554
:1047A0000580EF30E8F3B70700FF8507A240124409
:1047B0003E95B737F1009387077023A0F480133537
:1047C000150082443101828037140248B7079900EE
:1047D0002320F480B70765002320F480EF3048F1F0
:1047E000B717002883A787B3B3A7F720139547000F
:1047F0001D8D4D15EF30D88203250480A240124450
:10480000B70700FF85073E95824413351500310137
:104810008280B7076700B714024823A0F48022857E
:10482000EF3008EDB717002883A7C7B3CDB5000058
:10483000B717024837076C0023A0E78037076600E8
:1048400023A0E7803707680023A0E78037076A00C6
:1048500023A0E7806F30C8E900000000511122C298
:1048600006C426C089472A846383F50C63E4B7062F
:10487000ADE5630B060E1307F6FF8546914763EB24
:10488000E608B71702483707730023A0E780B7147C
:104890000028EF30E8E5938404B29C5CB3A7F720CE
:1048A000139547001D8D4D15EF3088F783D5C40350
:1048B0002286056513050580EF3088E2B70700FF03
:1048C000A24012448507AA9793B7170082443E85F9
:1048D000310182808D476395F504B7075300B71403
:1048E000024823A0F4802285EF3088E0B717002823
:1048F00083A787B4B3A7F720139547001D8D4D15E7
:10490000EF3008F283A70480370700FF0507BA9746
:1049100093B71700A240124482443E853101828041
:10492000A2401244894782443E853101828005C6F7
:104930009307F6FF05476372F706B7074F00B714F2
:10494000024823A0F4802285EF3088DAB7170028C8
:1049500083A747B445B7B71702483707750023A0A8
:10496000E780EF30E8D8D1BFB717024837077100AA
:1049700023A0E780B7140028EF3088D7938404B2CF
:104980009C5CB3A7F720139547001D8D4D15EF30A4
:1049900028E983D58403228629BFB7170248370741
:1049A000770023A0E780EF30A8D441BF00000000CB
:1049B000211122C826C606CA2A84AE8432C2EF302C
:1049C00038BA09472AC06380E40663629704B9E0F5
:1049D00037A7F400B71602481307278023A0E68004
:1049E00037076F0023A0E6802285EF3068D00147AB
:1049F0001246A68522853AC4EF3018B42247824772
:104A0000D2404244598DB2445D8D610182800D4790
:104A10006399E40037170248B70645002320D78082
:104A2000E1B70947F1B737170248B706430023201B
:104A3000D7805DBF00000000B7170248370772003B
:104A400023A0E7803707740023A0E78037077600AC
:104A500023A0E7803707780023A0E78037075400BA
:104A600023A0E7806F30C8C800000000511106C4C1
:104A700022C22A84EF30D8AB2285EF30789322858A
:104A80001244A24031016F3038AD0000B9E151113C
:104A9000B707F50006C422C23717024893870710EC
:104AA0002320F7802A84EF30A8C4B717002883D5C5
:104AB00007B60565228613050580EF3068C2A2405F
:104AC0001244B70700FF85073E95133515003101E5
:104AD000828009458280000081C581473E858280B1
:104AE000511106C411CA7D16054791476372C7026A
:104AF000A2403E8531018280B737F000938707E0FE
:104B0000371702482320F780EF3088BE8147CDB7A2
:104B1000B737F000938707D0371702482320F78074
:104B2000EF3008BD8147E9B7000000005111371789
:104B3000F50006C422C226C037140248930707A016
:104B40002320F480AA84EF30A8BAB707F500938732
:104B5000072026852320F480EF3088B9B737F0008E
:104B6000938607202320D4802320F4803717F50074
:104B7000938707E02320F480930707202320F48005
:104B80002320E4801244A2402685824431016F3004
:104B900028B60000511106C422C226C08947638F7F
:104BA000F5008D47638CF512054789476388E5104A
:104BB000A240124482443E85310182802A846309E6
:104BC00006147D1605479147E364C7FE37D3F0000E
:104BD000B7140248930703C023A0F480930703404F
:104BE00023A0F480EF30C8B037D3F0009306031051
:104BF000856223A06480138502F3228723A0D480DA
:104C00001D66B1469D45EF3028ACB7E7F00013872D
:104C1000073023A0E4801387075023A0E480138784
:104C200007B023A0E4801387079037D3F00023A0B8
:104C3000E480138707D013050370856223A0E48006
:104C40008D46130680038D45228723A0A4801385FB
:104C500002F3EF3068A72285EF3088A937170028C4
:104C6000032707B53327E72013154700198D4D1586
:104C7000EF3008BB37D3F00013030330B7E7F00081
:104C800023A06480938707F023A0F480B7C7F000C7
:104C90009387077023A0F4802285EF3068A5856292
:104CA000138502F22287A146130600708D45EF306E
:104CB000A8A12285EF30C8A38147DDBD6304061299
:104CC0007D169147E3E6C5EEB7170248370759004E
:104CD00023A0E780EF30C8A18147D9BD05C27D166A
:104CE00005479147E366C7ECB717024837075B00F3
:104CF00023A0E780EF30C89F81475DBDB71702480A
:104D00003707570023A0E780EF30889E81474DB5D5
:104D1000B7D7F000B7140248138707C023A0E48078
:104D20001387074023A0E480EF30889CB7D7F000BA
:104D300085629386071023A0F480138602E0138512
:104D400002F3228723A0D4809D45A546EF30C89763
:104D500037E3F0001307031023A0E4801307035088
:104D600023A0E480130703B023A0E480130703907B
:104D7000B7D7F00023A0E480130703D01385077092
:104D8000856223A0E4808D46130680038D4522872B
:104D900023A0A480138502F3EF3008932285EF301F
:104DA0002895371700280327C7B43327E7201315A2
:104DB0004700198D4D15EF30A8A6B7D7F00013871F
:104DC000073037E3F00023A0E480130303F0938758
:104DD000079023A0648023A0F4802285EF304891BF
:104DE0008147F9B3B71702483707550023A0E7807A
:104DF000EF30089081476DBB00000000411106C6EE
:104E000022C426C281CD9387F5FF0947636CF70260
:104E10002244B240924441016F3008F132842AC0EA
:104E2000EF3088EE0247AA8429C01306F4FF8547B5
:104E300063F1C702B2402244936445002685924440
:104E4000410182808944B240224426859244410136
:104E50008280B737F000B7160248938707D023A0A7
:104E6000F6803A85EF30C888F9BFB737F000B7163B
:104E70000248938707E03A8523A0F680EF30488701
:104E8000B240224426859244410182800000000005
:104E9000511126C006C422C2AA84B5C9FD15054712
:104EA00091476378B700A240124482443E853101A5
:104EB0008280B7F7F00037140248138707A0232039
:104EC000E480138707B0B7E7F0002320E48013875E
:104ED00007202320E480938707302320F480EF30DD
:104EE0002881B7D7F000938707A02320F480B7C7A5
:104EF000F000938707702320F4802685EF2058FF69
:104F00008147A240124482443E8531018280B7F736
:104F1000F00037140248138707C02320E48013876A
:104F20000790B7E7F0002320E48013870740232091
:104F3000E480938707102320F480EF2078FBB7D715
:104F4000F000138707802320E480938707902320B5
:104F5000F4802685EF20D8F9814765B7000000006E
:104F6000B71702483707560023A0E78037075A00D3
:104F700023A0E7803707580023A0E78037075C00AD
:104F800023A0E78037075E0023A0E780B706600014
:104F900037D7F00023A0D780930607A023A0D7809F
:104FA0009306078023A0D780B7E6F00023A0D78020
:104FB0001307073023A0E7806F2098F3000000005C
:104FC000511122C206C42A84EF3088D322851244AC
:104FD000A24031016F3048D4000000003111B746C3
:104FE000F10006C81387069022C626C4371402486B
:104FF0002320E480B71400282EC22AC0938404B270
:10500000EF2018EFF8403327E72013154700198DDC
:105010004D15EF30E88037076B0002451907B7469A
:10502000F100938606802320E4802320D480EF20A3
:1050300038EC024503270480EF2098EBB84433276F
:10504000E72013154700198D4D15EF2078FD37A780
:10505000F4000245130727802320E48037076F0000
:105060002320E480EF20D8E8B756F000138706E04D
:105070002320E480138706F02320E4809386061023
:105080003737F1002320D480930607E02320D48013
:105090000245930607F02320D480130707902320AE
:1050A000E480EF20F8E43707970092452320E4805E
:1050B000370798002320E480A5C99147FD150547CF
:1050C0003EC26372B708B707970037170248938745
:1050D00007602320F780B7079800938707302320C5
:1050E000F7800245B707F500938707102320F78064
:1050F000EF2018E0FC44B3A7F720139547001D8D5F
:105100004D15EF20F8F13717024803250780B70740
:1051100000FF8507C24032443E9592471335150083
:10512000A2445D8D51018280024537077100050759
:105130002320E480EF20D8DB024583270480EF2082
:1051400038DB02C249B7024537077300CDB700000C
:10515000B746F100B71702483737F10013860680CB
:1051600023A0C7801306076023A0C7803726F1005D
:10517000130606A023A0C7801306078023A0C780BC
:105180001386064023A0C780938606A03726F0002A
:1051900023A0D7809306068023A0D780B715F00000
:1051A0001306069023A0C780938605E023A0D7802E
:1051B000B736F00023A0B7801386068023A0C780EF
:1051C000938606A023A0D780B756F00023A0D780EF
:1051D0001386062023A0C780938606D037A6F0004A
:1051E00023A0D780930606A023A0D780130606D05D
:1051F00023A0C780930607E023A0D78023A0E780E1
:10520000130707A023A0E7803707620023A0E780E9
:105210006F2018CE000000003797F4009377150038
:1052200013070760BA97371702482320F7802E85A7
:105230006F2018CC00000000CD4763E9A700B71726
:105240000028938707B23345F5200CC18280000007
:10525000130181B9FD72232E91442322114623208C
:1052600081460567169193063500130737802EC0D7
:10527000AA8413D326006374D700130300200564A7
:10528000130404457D77B307E40078003E97228637
:105290008145130507BB1AC43AC2EF30B34C224311
:1052A0007800B307E4000246338487409A85A286DB
:1052B0001145EF30689F2285EF2098C337450F00D6
:1052C00013050524B3B5A4023796D0038146338570
:1052D000A402EF10F33F93074006B377F50AB3A794
:1052E000F720139547001D8D4D15EF2078D385626B
:1052F000169183204146032401468324C1451301AE
:105300008146828000000000130101BAFD7205662B
:10531000232E1144232C8144232A9144130606454D
:105320001691FD773307F6005C00BA9758002A847F
:105330003EC08145138507BBB307E600B384C74071
:10534000EF305342A686228681450145EF30C8954D
:105350002685EF20F8B9856216918320C145032484
:1053600081458324414513010146828000000000ED
:10537000130141DE232C1120232A81202328912090
:105380002EC22AC0A1CDAE841306802081452800FC
:10539000EF30533DB7170828138447A59384440D75
:1053A0001080824528000A06EF30888AB71708283F
:1053B00088C00504938787AD9104E313F4FE124778
:1053C0008320812103244121930740082328F70CDF
:1053D0008324012101451301C12182808320812181
:1053E000032441218324012105451301C121828029
:1053F00011113717002806CC22CA26C80327C7B1C7
:105400006313050E104F37740128AA87032544053E
:10541000630F06183EC05C4B3EC6EDE30567AA86E7
:10542000130607F389451545EF2018AB37F6F00052
:10543000B71602481306063023A0C680AA841316A6
:10544000452903254405056723A8C6F29307070BE2
:105450003EC402C2EF20D8A903254405B71602486E
:105460009394444923A896F2EF2098A8824701001C
:105470003706A100032544053EC0B316F0283717B0
:105480000248B2962320D780EF2098A60325440532
:10549000B7F4F00093860450371702482320D780D2
:1054A000EF2018A5032544053717024893840460AC
:1054B00023209780EF20D8A38326440522468945E0
:1054C0001545EF2078A18247BD461355354913870E
:1054D0001700638F071E92476303F5003AC6630601
:1054E000D70ABA8771B75C4B05470145FD17637949
:1054F000F714E2405244C24471018280B7F4F000D4
:1055000037170248938704D02320F780938704102D
:105510002320F780EF20D89D03254405938704209E
:10552000371702482320F780EF20989C0325440575
:10553000938704F0371702482320F780EF20589B09
:10554000032544053717024823209780EF20589AF7
:105550008326440505661306060B89451545EF208D
:10556000B897AA8703254405938404E037170248B7
:105570002320978013D44701EF209897E2401375BA
:1055800014005244C2447101828003254405B7F7D8
:10559000F00093870740371702482320F780EF2059
:1055A0003895B2471245B1D713F5F70F99B7B7142D
:1055B000F50037170248938704D02320F78093879C
:1055C00004302320F780EF20B89203254405938709
:1055D0000440371702482320F780EF2078910325F5
:1055E000440593870450371702482320F780EF20A3
:1055F0003890032544059387046037170248232019
:10560000F780EF20F88E8326440505661306060B07
:1056100089451545EF20588CAA87032544059384B6
:1056200004E0371702482320978013D47700EF2037
:10563000388CE240137574005244C2447101828078
:105640003733F000B7740128930603B037140248CB
:1056500003A54405B777F2002320D480938617D0A2
:105660002320D480EF20D88803A54405B777F20023
:10567000938707D02320F480EF20988703A5440563
:1056800005472320E4D0EF20B88603A54405232056
:1056900004D0EF20F88583A6440505661306060BA3
:1056A00089451545EF205883AA873733F00003A5B5
:1056B0004405130303C02320648013D40701EF20A3
:1056C0003883E240137574005244C24471018280F1
:1056D0002AC2BA8771BB000063060554130181D347
:1056E0008567138687AE232E912AAE8481452322B7
:1056F000112C2320812C2A84EF30D3060D4718C0AB
:1057000013068020814544C04819EF30B3051306C5
:10571000801EA6854819EF20B8D32A8793563500F6
:10572000937777001306C01EA6853EC6481993F7E7
:10573000F60F3EC8EF20D8D12A879356850093777D
:10574000F7011306001FA6853ECA481993F7F6070E
:105750003ECCEF20F8CF2A879377F70F130600206F
:10576000A68548193ECEEF20B8CE8567FD172A875B
:105770007D8F1306C020A68548193AC2EF2058CD68
:105780002A879377170013068015A68548193ED0FF
:10579000EF2018CC2A879377F70F13068005A6858C
:1057A00048193ED2EF20D8CA85679386F7FF2A872B
:1057B000758F1306C005A68548193AD4EF2058C93D
:1057C000935685001357C50093F7F6001306800221
:1057D000A6853ED64819937737003ED8EF2058C7A4
:1057E000935645001357950093F7F60113060003EF
:1057F000A6853EDA48199377F7013EDCEF2058C5BD
:10580000935645001357950093F7F601130680034E
:10581000A6853EDE48199377F700BEC0EF2058C337
:105820009356450093F7F601135795001306C008E9
:10583000A685BEC248199377F700BEC4EF2058C1B1
:105840002A879377F73F13068008A6854819BEC6B6
:10585000EF2018C02A87937777001306C010A6851B
:105860004819BEC8EF20D8BE135735009377F70309
:1058700013068004A6854819BECAEF2078BD1357C9
:1058800095009377F70313060005A6854819BECC4B
:10589000EF2018BC135795009377F70113064012B9
:1058A000A6854819BECEEF20B8BA2A87937717008D
:1058B00013060017A6854819BED0EF2078B9856772
:1058C0002A87FD17F98F1306C00FA6854819BED287
:1058D000EF2018B8AA8713F7170013060002A68551
:1058E000BAD4481913D7174893D72748BAD6BED881
:1058F000EF2018B62146A685AA8748193EC0EF209A
:1059000038B58247B7060002938606E01357750044
:10591000A607F58F1377F71FD98F01453EC0EF20FB
:10592000B8D32A870545BADEEF2018D32A87268503
:105930003AC1EF2078BB378703001307E782B335FE
:10594000E50237460F00130606248146599DEF10E5
:1059500023582A8713064022A6854819BADAEF2071
:1059600038AF9377F5073EC4639F04223717024888
:10597000B766F4002320D7804819EF2068D737177F
:10598000024883270780B716F30093860660BEDCC3
:105990002320D7804819EF20A8D5371702480327BE
:1059A0000780058B6312072881473EC9914741470D
:1059B0003ED195473AC72146814695433ECF82471F
:1059C000B742420F914533B757022ECDB3825702EB
:1059D0009315D700935737013ED593D23201B3E2E6
:1059E000550033B7720216D3B3857702B3837202C0
:1059F000B387E500BE853EC31E851EC5EF10434D2F
:105A0000AA432E833A469A45CA462A871E853ACB30
:105A10001AC3EF10E34B1A435A479A52AA572AC5A2
:105A20002EC79143A2463796D0030145B38676022E
:105A3000B305D602B336D60212462EC336CB31C2D8
:105A4000B3E6F2009DCEB7261D00370500A293866F
:105A500046A9B386D3021AD93AD73ED516D3B33561
:105A60007502B380C702B695B33656023305750288
:105A7000869633065602EF10A3454A533A57AA5763
:105A80009A522322A408665582403706040008C4AF
:105A90003245B386C000B60648C40255B582B795F4
:105AA000D00308C84245918E3396B60248C81255B5
:105AB00093D3B000232E740608CC325548CC4255FF
:105AC000CD9E9315D60008D022554D8648D052550C
:105AD00008D47255CD82CD8E48D41645A64508D837
:105AE00062554CDCB64548D8064508DC2CC0C64596
:105AF0007A45232C14066CC0D6452CC4E6456CC4EC
:105B0000F6452CC8D2456CC8E2452CCCF2456CCC8D
:105B100086552CD092456CD096552CD4A6556CD475
:105B2000B6552CD8C6556CD8D6552320B408EA45AE
:105B30002324B4082326A4080A552322F40AAA47DA
:105B40002328A40876552324F40ABA47232AA40854
:105B50000A452326F40A9A47232CA4082245232029
:105B6000F40CDA47232EA408A2852320540A232804
:105B7000E40A232A640A232CD40A232EC40A2322EB
:105B8000F40C2324040C2326040C2328040C26855F
:105B9000EF2018AA8320412C0324012C8324C12B3D
:105BA0001301812C82803737F4003716024813071F
:105BB00007202320E6804819EF2088B38247B726C4
:105BC000A1073716024833B7D7020326068085455A
:105BD0000143B2DC3E86B386D7021315D7004D834E
:105BE000CD82C98E63FEE5048247894313D3F70152
:105BF0001396170089473ECD3797D003B336C702B7
:105C000085473ED13ECF33036702519F36939316AB
:105C1000D300135333019A871AC74D83558FBA8225
:105C20003AC509B50545828081473EC98947214764
:105C30003ED18D473AC7114681468D433ECF41B391
:105C40006318B700371710241307F70FE36ED7F860
:105C5000854785433ECD4DB700000000311126C475
:105C6000B714002883A7C4B106C822C6984F2EC215
:105C7000AA87B7160248631407123717F5001307EF
:105C8000072023A0E68037740128032544053EC081
:105C9000EF2008A603A7C4B18247184F6315071267
:105CA000B71602483717F50023A0E680130707F060
:105CB00023A0E68003254405E99F3EC0EF2048A3CA
:105CC00083A7C4B1032544058C4FEDE1EF2048FCC8
:105CD00083A7C4B1032544050246839647028C4F2F
:105CE000EF2088FA03254405EF2088A083A7C4B1DC
:105CF000832644059245904F5D45EF20E8FA83A73F
:105D0000C4B19C4FC1E3B717F5003717024893861B
:105D100007202320D780938707102320F7800325AF
:105D20004405A9473EC0EF20A89C82470DA0371725
:105D30000248130500020324070B3EC0EF2048AEC3
:105D4000824713546448FD17E19F8DC751E803A7AC
:105D5000C4B1184F69DF3717024813050002032446
:105D6000070B3EC0EF20C8AB824713545448FD17C1
:105D7000E19FE9FFC240134514003244A2440E05DE
:105D800051018280B7C7F000371702489386076039
:105D90002320D780938707502320F78049B737C740
:105DA000F0001307076023A0E680F1BDEF2048EF65
:105DB00083A7C4B1032544050246839647028C4F4E
:105DC000EF2088ED05B737C7F000B7160248130675
:105DD000074023A0C6801307073023A0E680D9BD63
:105DE000C2403244A24401455101828000000000BB
:105DF000B717002883A7C7B19C4F81EBB71702489C
:105E000003A5070B135565488280B717024803A501
:105E1000070B13555548828000000000411122C431
:105E200026C22A84AE8432C006C6EF1078C3B77784
:105E3000012883A68710B707021293870708135714
